{
    "contractName": "IncentiveLocker",
    "abi": [
        {
            "inputs": [
                {
                    "internalType": "address",
                    "name": "_owner",
                    "type": "address"
                },
                {
                    "internalType": "address",
                    "name": "_defaultProtocolFeeClaimant",
                    "type": "address"
                },
                {
                    "internalType": "uint64",
                    "name": "_defaultProtocolFee",
                    "type": "uint64"
                }
            ],
            "stateMutability": "nonpayable",
            "type": "constructor"
        },
        {
            "inputs": [],
            "name": "ArrayLengthMismatch",
            "type": "error"
        },
        {
            "inputs": [],
            "name": "CannotOfferZeroIncentives",
            "type": "error"
        },
        {
            "inputs": [],
            "name": "CannotProcessDuplicateIncentives",
            "type": "error"
        },
        {
            "inputs": [],
            "name": "OnlyIP",
            "type": "error"
        },
        {
            "inputs": [],
            "name": "OnlyPointsProgramOwner",
            "type": "error"
        },
        {
            "inputs": [
                {
                    "internalType": "address",
                    "name": "owner",
                    "type": "address"
                }
            ],
            "name": "OwnableInvalidOwner",
            "type": "error"
        },
        {
            "inputs": [
                {
                    "internalType": "address",
                    "name": "account",
                    "type": "address"
                }
            ],
            "name": "OwnableUnauthorizedAccount",
            "type": "error"
        },
        {
            "inputs": [],
            "name": "ReentrancyGuardReentrantCall",
            "type": "error"
        },
        {
            "inputs": [],
            "name": "SpendCapExceeded",
            "type": "error"
        },
        {
            "inputs": [],
            "name": "TokenDoesNotExist",
            "type": "error"
        },
        {
            "anonymous": false,
            "inputs": [
                {
                    "indexed": true,
                    "internalType": "address",
                    "name": "pointsId",
                    "type": "address"
                },
                {
                    "indexed": true,
                    "internalType": "address",
                    "name": "recipient",
                    "type": "address"
                },
                {
                    "indexed": false,
                    "internalType": "uint256",
                    "name": "amount",
                    "type": "uint256"
                }
            ],
            "name": "Award",
            "type": "event"
        },
        {
            "anonymous": false,
            "inputs": [
                {
                    "indexed": true,
                    "internalType": "bytes32",
                    "name": "incentiveCampaignId",
                    "type": "bytes32"
                },
                {
                    "indexed": false,
                    "internalType": "address[]",
                    "name": "coIPs",
                    "type": "address[]"
                }
            ],
            "name": "CoIPsAdded",
            "type": "event"
        },
        {
            "anonymous": false,
            "inputs": [
                {
                    "indexed": true,
                    "internalType": "bytes32",
                    "name": "incentiveCampaignId",
                    "type": "bytes32"
                },
                {
                    "indexed": false,
                    "internalType": "address[]",
                    "name": "coIPs",
                    "type": "address[]"
                }
            ],
            "name": "CoIPsRemoved",
            "type": "event"
        },
        {
            "anonymous": false,
            "inputs": [
                {
                    "indexed": true,
                    "internalType": "address",
                    "name": "newDefaultProtocolFeeClaimant",
                    "type": "address"
                }
            ],
            "name": "DefaultProtocolFeeClaimantSet",
            "type": "event"
        },
        {
            "anonymous": false,
            "inputs": [
                {
                    "indexed": false,
                    "internalType": "uint64",
                    "name": "newDefaultProtocolFee",
                    "type": "uint64"
                }
            ],
            "name": "DefaultProtocolFeeSet",
            "type": "event"
        },
        {
            "anonymous": false,
            "inputs": [
                {
                    "indexed": true,
                    "internalType": "address",
                    "name": "claimant",
                    "type": "address"
                },
                {
                    "indexed": true,
                    "internalType": "address",
                    "name": "incentive",
                    "type": "address"
                },
                {
                    "indexed": false,
                    "internalType": "uint256",
                    "name": "amount",
                    "type": "uint256"
                }
            ],
            "name": "FeesClaimed",
            "type": "event"
        },
        {
            "anonymous": false,
            "inputs": [
                {
                    "indexed": true,
                    "internalType": "bytes32",
                    "name": "incentiveCampaignId",
                    "type": "bytes32"
                },
                {
                    "indexed": true,
                    "internalType": "address",
                    "name": "ip",
                    "type": "address"
                },
                {
                    "indexed": true,
                    "internalType": "address",
                    "name": "actionVerifier",
                    "type": "address"
                },
                {
                    "indexed": false,
                    "internalType": "bytes",
                    "name": "actionParams",
                    "type": "bytes"
                },
                {
                    "indexed": false,
                    "internalType": "uint64",
                    "name": "defaultProtocolFee",
                    "type": "uint64"
                },
                {
                    "indexed": false,
                    "internalType": "address[]",
                    "name": "incentivesOffered",
                    "type": "address[]"
                },
                {
                    "indexed": false,
                    "internalType": "uint256[]",
                    "name": "incentiveAmountsOffered",
                    "type": "uint256[]"
                }
            ],
            "name": "IncentiveCampaignCreated",
            "type": "event"
        },
        {
            "anonymous": false,
            "inputs": [
                {
                    "indexed": true,
                    "internalType": "bytes32",
                    "name": "incentiveCampaignId",
                    "type": "bytes32"
                },
                {
                    "indexed": true,
                    "internalType": "address",
                    "name": "ip",
                    "type": "address"
                },
                {
                    "indexed": false,
                    "internalType": "address[]",
                    "name": "incentivesOffered",
                    "type": "address[]"
                },
                {
                    "indexed": false,
                    "internalType": "uint256[]",
                    "name": "incentiveAmountsOffered",
                    "type": "uint256[]"
                }
            ],
            "name": "IncentivesAdded",
            "type": "event"
        },
        {
            "anonymous": false,
            "inputs": [
                {
                    "indexed": true,
                    "internalType": "bytes32",
                    "name": "incentiveCampaignId",
                    "type": "bytes32"
                },
                {
                    "indexed": true,
                    "internalType": "address",
                    "name": "ap",
                    "type": "address"
                },
                {
                    "indexed": false,
                    "internalType": "address[]",
                    "name": "incentivesClaimed",
                    "type": "address[]"
                },
                {
                    "indexed": false,
                    "internalType": "uint256[]",
                    "name": "incentiveAmountsPaid",
                    "type": "uint256[]"
                },
                {
                    "indexed": false,
                    "internalType": "uint256[]",
                    "name": "protocolFeesPaid",
                    "type": "uint256[]"
                }
            ],
            "name": "IncentivesClaimed",
            "type": "event"
        },
        {
            "anonymous": false,
            "inputs": [
                {
                    "indexed": true,
                    "internalType": "bytes32",
                    "name": "incentiveCampaignId",
                    "type": "bytes32"
                },
                {
                    "indexed": true,
                    "internalType": "address",
                    "name": "ip",
                    "type": "address"
                },
                {
                    "indexed": false,
                    "internalType": "address[]",
                    "name": "incentivesRemoved",
                    "type": "address[]"
                },
                {
                    "indexed": false,
                    "internalType": "uint256[]",
                    "name": "incentiveAmountsRemoved",
                    "type": "uint256[]"
                }
            ],
            "name": "IncentivesRemoved",
            "type": "event"
        },
        {
            "anonymous": false,
            "inputs": [
                {
                    "indexed": true,
                    "internalType": "address",
                    "name": "previousOwner",
                    "type": "address"
                },
                {
                    "indexed": true,
                    "internalType": "address",
                    "name": "newOwner",
                    "type": "address"
                }
            ],
            "name": "OwnershipTransferStarted",
            "type": "event"
        },
        {
            "anonymous": false,
            "inputs": [
                {
                    "indexed": true,
                    "internalType": "address",
                    "name": "previousOwner",
                    "type": "address"
                },
                {
                    "indexed": true,
                    "internalType": "address",
                    "name": "newOwner",
                    "type": "address"
                }
            ],
            "name": "OwnershipTransferred",
            "type": "event"
        },
        {
            "anonymous": false,
            "inputs": [
                {
                    "indexed": true,
                    "internalType": "address",
                    "name": "pointsId",
                    "type": "address"
                },
                {
                    "indexed": true,
                    "internalType": "address",
                    "name": "owner",
                    "type": "address"
                },
                {
                    "indexed": false,
                    "internalType": "string",
                    "name": "name",
                    "type": "string"
                },
                {
                    "indexed": true,
                    "internalType": "string",
                    "name": "symbol",
                    "type": "string"
                },
                {
                    "indexed": false,
                    "internalType": "uint8",
                    "name": "decimals",
                    "type": "uint8"
                },
                {
                    "indexed": false,
                    "internalType": "address[]",
                    "name": "whitelistedIPs",
                    "type": "address[]"
                },
                {
                    "indexed": false,
                    "internalType": "uint256[]",
                    "name": "spendCaps",
                    "type": "uint256[]"
                }
            ],
            "name": "PointsProgramCreated",
            "type": "event"
        },
        {
            "anonymous": false,
            "inputs": [
                {
                    "indexed": true,
                    "internalType": "address",
                    "name": "pointsId",
                    "type": "address"
                },
                {
                    "indexed": true,
                    "internalType": "address",
                    "name": "newOwner",
                    "type": "address"
                }
            ],
            "name": "PointsProgramOwnershipTransferred",
            "type": "event"
        },
        {
            "anonymous": false,
            "inputs": [
                {
                    "indexed": true,
                    "internalType": "address",
                    "name": "pointsId",
                    "type": "address"
                },
                {
                    "indexed": true,
                    "internalType": "address",
                    "name": "ip",
                    "type": "address"
                },
                {
                    "indexed": false,
                    "internalType": "uint256",
                    "name": "amount",
                    "type": "uint256"
                }
            ],
            "name": "PointsSpent",
            "type": "event"
        },
        {
            "anonymous": false,
            "inputs": [
                {
                    "indexed": true,
                    "internalType": "bytes32",
                    "name": "incentiveCampaignId",
                    "type": "bytes32"
                },
                {
                    "indexed": true,
                    "internalType": "address",
                    "name": "newProtocolFeeClaimant",
                    "type": "address"
                }
            ],
            "name": "ProtocolFeeClaimantForCampaignSet",
            "type": "event"
        },
        {
            "anonymous": false,
            "inputs": [
                {
                    "indexed": true,
                    "internalType": "bytes32",
                    "name": "incentiveCampaignId",
                    "type": "bytes32"
                },
                {
                    "indexed": false,
                    "internalType": "uint64",
                    "name": "newProtocolFee",
                    "type": "uint64"
                }
            ],
            "name": "ProtocolFeeForCampaignSet",
            "type": "event"
        },
        {
            "anonymous": false,
            "inputs": [
                {
                    "indexed": true,
                    "internalType": "address",
                    "name": "pointsId",
                    "type": "address"
                },
                {
                    "indexed": false,
                    "internalType": "address[]",
                    "name": "ips",
                    "type": "address[]"
                },
                {
                    "indexed": false,
                    "internalType": "uint256[]",
                    "name": "spendCaps",
                    "type": "uint256[]"
                }
            ],
            "name": "SpendCapsUpdated",
            "type": "event"
        },
        {
            "inputs": [],
            "name": "acceptOwnership",
            "outputs": [],
            "stateMutability": "nonpayable",
            "type": "function"
        },
        {
            "inputs": [
                {
                    "internalType": "bytes32",
                    "name": "_incentiveCampaignId",
                    "type": "bytes32"
                },
                {
                    "internalType": "address[]",
                    "name": "_coIPs",
                    "type": "address[]"
                }
            ],
            "name": "addCoIPs",
            "outputs": [],
            "stateMutability": "nonpayable",
            "type": "function"
        },
        {
            "inputs": [
                {
                    "internalType": "bytes32",
                    "name": "_incentiveCampaignId",
                    "type": "bytes32"
                },
                {
                    "internalType": "address[]",
                    "name": "_incentivesOffered",
                    "type": "address[]"
                },
                {
                    "internalType": "uint256[]",
                    "name": "_incentiveAmountsOffered",
                    "type": "uint256[]"
                },
                {
                    "internalType": "bytes",
                    "name": "_additionParams",
                    "type": "bytes"
                }
            ],
            "name": "addIncentives",
            "outputs": [],
            "stateMutability": "nonpayable",
            "type": "function"
        },
        {
            "inputs": [
                {
                    "internalType": "address",
                    "name": "_incentiveToken",
                    "type": "address"
                },
                {
                    "internalType": "address",
                    "name": "_to",
                    "type": "address"
                }
            ],
            "name": "claimFees",
            "outputs": [],
            "stateMutability": "nonpayable",
            "type": "function"
        },
        {
            "inputs": [
                {
                    "internalType": "bytes32",
                    "name": "_incentiveCampaignId",
                    "type": "bytes32"
                },
                {
                    "internalType": "address",
                    "name": "_ap",
                    "type": "address"
                },
                {
                    "internalType": "bytes",
                    "name": "_claimParams",
                    "type": "bytes"
                }
            ],
            "name": "claimIncentives",
            "outputs": [],
            "stateMutability": "nonpayable",
            "type": "function"
        },
        {
            "inputs": [
                {
                    "internalType": "address",
                    "name": "_ap",
                    "type": "address"
                },
                {
                    "internalType": "bytes32[]",
                    "name": "_incentiveCampaignIds",
                    "type": "bytes32[]"
                },
                {
                    "internalType": "bytes[]",
                    "name": "_claimParams",
                    "type": "bytes[]"
                }
            ],
            "name": "claimIncentives",
            "outputs": [],
            "stateMutability": "nonpayable",
            "type": "function"
        },
        {
            "inputs": [
                {
                    "internalType": "address",
                    "name": "_actionVerifier",
                    "type": "address"
                },
                {
                    "internalType": "bytes",
                    "name": "_actionParams",
                    "type": "bytes"
                },
                {
                    "internalType": "address[]",
                    "name": "_incentivesOffered",
                    "type": "address[]"
                },
                {
                    "internalType": "uint256[]",
                    "name": "_incentiveAmountsOffered",
                    "type": "uint256[]"
                }
            ],
            "name": "createIncentiveCampaign",
            "outputs": [
                {
                    "internalType": "bytes32",
                    "name": "incentiveCampaignId",
                    "type": "bytes32"
                }
            ],
            "stateMutability": "nonpayable",
            "type": "function"
        },
        {
            "inputs": [
                {
                    "internalType": "string",
                    "name": "_name",
                    "type": "string"
                },
                {
                    "internalType": "string",
                    "name": "_symbol",
                    "type": "string"
                },
                {
                    "internalType": "uint8",
                    "name": "_decimals",
                    "type": "uint8"
                },
                {
                    "internalType": "address[]",
                    "name": "_whitelistedIPs",
                    "type": "address[]"
                },
                {
                    "internalType": "uint256[]",
                    "name": "_spendCaps",
                    "type": "uint256[]"
                }
            ],
            "name": "createPointsProgram",
            "outputs": [
                {
                    "internalType": "address",
                    "name": "pointsId",
                    "type": "address"
                }
            ],
            "stateMutability": "nonpayable",
            "type": "function"
        },
        {
            "inputs": [],
            "name": "defaultProtocolFee",
            "outputs": [
                {
                    "internalType": "uint64",
                    "name": "",
                    "type": "uint64"
                }
            ],
            "stateMutability": "view",
            "type": "function"
        },
        {
            "inputs": [],
            "name": "defaultProtocolFeeClaimant",
            "outputs": [
                {
                    "internalType": "address",
                    "name": "",
                    "type": "address"
                }
            ],
            "stateMutability": "view",
            "type": "function"
        },
        {
            "inputs": [
                {
                    "internalType": "address",
                    "name": "claimant",
                    "type": "address"
                },
                {
                    "internalType": "address",
                    "name": "token",
                    "type": "address"
                }
            ],
            "name": "feeClaimantToTokenToAmount",
            "outputs": [
                {
                    "internalType": "uint256",
                    "name": "amountOwed",
                    "type": "uint256"
                }
            ],
            "stateMutability": "view",
            "type": "function"
        },
        {
            "inputs": [
                {
                    "internalType": "bytes32",
                    "name": "_incentiveCampaignId",
                    "type": "bytes32"
                },
                {
                    "internalType": "address",
                    "name": "_incentive",
                    "type": "address"
                }
            ],
            "name": "getIncentiveAmountOfferedAndRemaining",
            "outputs": [
                {
                    "internalType": "bool",
                    "name": "exists",
                    "type": "bool"
                },
                {
                    "internalType": "address",
                    "name": "ip",
                    "type": "address"
                },
                {
                    "internalType": "uint256",
                    "name": "incentiveAmountOffered",
                    "type": "uint256"
                },
                {
                    "internalType": "uint256",
                    "name": "incentiveAmountRemaining",
                    "type": "uint256"
                }
            ],
            "stateMutability": "view",
            "type": "function"
        },
        {
            "inputs": [
                {
                    "internalType": "bytes32",
                    "name": "_incentiveCampaignId",
                    "type": "bytes32"
                },
                {
                    "internalType": "address[]",
                    "name": "_incentives",
                    "type": "address[]"
                }
            ],
            "name": "getIncentiveAmountsOfferedAndRemaining",
            "outputs": [
                {
                    "internalType": "bool",
                    "name": "exists",
                    "type": "bool"
                },
                {
                    "internalType": "address",
                    "name": "ip",
                    "type": "address"
                },
                {
                    "internalType": "uint256[]",
                    "name": "incentiveAmountsOffered",
                    "type": "uint256[]"
                },
                {
                    "internalType": "uint256[]",
                    "name": "incentiveAmountsRemaining",
                    "type": "uint256[]"
                }
            ],
            "stateMutability": "view",
            "type": "function"
        },
        {
            "inputs": [
                {
                    "internalType": "bytes32",
                    "name": "_incentiveCampaignId",
                    "type": "bytes32"
                }
            ],
            "name": "getIncentiveCampaignIncentiveInfo",
            "outputs": [
                {
                    "internalType": "bool",
                    "name": "exists",
                    "type": "bool"
                },
                {
                    "internalType": "address",
                    "name": "ip",
                    "type": "address"
                },
                {
                    "internalType": "address[]",
                    "name": "incentivesOffered",
                    "type": "address[]"
                },
                {
                    "internalType": "uint256[]",
                    "name": "incentiveAmountsOffered",
                    "type": "uint256[]"
                },
                {
                    "internalType": "uint256[]",
                    "name": "incentiveAmountsRemaining",
                    "type": "uint256[]"
                }
            ],
            "stateMutability": "view",
            "type": "function"
        },
        {
            "inputs": [
                {
                    "internalType": "bytes32",
                    "name": "_incentiveCampaignId",
                    "type": "bytes32"
                }
            ],
            "name": "getIncentiveCampaignState",
            "outputs": [
                {
                    "internalType": "bool",
                    "name": "exists",
                    "type": "bool"
                },
                {
                    "internalType": "address",
                    "name": "ip",
                    "type": "address"
                },
                {
                    "internalType": "uint64",
                    "name": "protocolFee",
                    "type": "uint64"
                },
                {
                    "internalType": "address",
                    "name": "protocolFeeClaimant",
                    "type": "address"
                },
                {
                    "internalType": "address",
                    "name": "actionVerifier",
                    "type": "address"
                },
                {
                    "internalType": "bytes",
                    "name": "actionParams",
                    "type": "bytes"
                },
                {
                    "internalType": "address[]",
                    "name": "incentivesOffered",
                    "type": "address[]"
                },
                {
                    "internalType": "uint256[]",
                    "name": "incentiveAmountsOffered",
                    "type": "uint256[]"
                },
                {
                    "internalType": "uint256[]",
                    "name": "incentiveAmountsRemaining",
                    "type": "uint256[]"
                }
            ],
            "stateMutability": "view",
            "type": "function"
        },
        {
            "inputs": [
                {
                    "internalType": "bytes32",
                    "name": "_incentiveCampaignId",
                    "type": "bytes32"
                }
            ],
            "name": "getIncentiveCampaignVerifierAndParams",
            "outputs": [
                {
                    "internalType": "bool",
                    "name": "exists",
                    "type": "bool"
                },
                {
                    "internalType": "address",
                    "name": "ip",
                    "type": "address"
                },
                {
                    "internalType": "address",
                    "name": "actionVerifier",
                    "type": "address"
                },
                {
                    "internalType": "bytes",
                    "name": "actionParams",
                    "type": "bytes"
                }
            ],
            "stateMutability": "view",
            "type": "function"
        },
        {
            "inputs": [
                {
                    "internalType": "address",
                    "name": "_pointsId",
                    "type": "address"
                },
                {
                    "internalType": "address",
                    "name": "_ip",
                    "type": "address"
                }
            ],
            "name": "getIpSpendCap",
            "outputs": [
                {
                    "internalType": "uint256",
                    "name": "spendCap",
                    "type": "uint256"
                }
            ],
            "stateMutability": "view",
            "type": "function"
        },
        {
            "inputs": [
                {
                    "internalType": "address",
                    "name": "_pointsId",
                    "type": "address"
                }
            ],
            "name": "getPointsProgramMetadata",
            "outputs": [
                {
                    "internalType": "address",
                    "name": "owner",
                    "type": "address"
                },
                {
                    "internalType": "string",
                    "name": "name",
                    "type": "string"
                },
                {
                    "internalType": "string",
                    "name": "symbol",
                    "type": "string"
                },
                {
                    "internalType": "uint8",
                    "name": "decimals",
                    "type": "uint8"
                }
            ],
            "stateMutability": "view",
            "type": "function"
        },
        {
            "inputs": [
                {
                    "internalType": "bytes32",
                    "name": "_incentiveCampaignId",
                    "type": "bytes32"
                }
            ],
            "name": "incentiveCampaignExists",
            "outputs": [
                {
                    "internalType": "bool",
                    "name": "exists",
                    "type": "bool"
                },
                {
                    "internalType": "address",
                    "name": "ip",
                    "type": "address"
                }
            ],
            "stateMutability": "view",
            "type": "function"
        },
        {
            "inputs": [
                {
                    "internalType": "bytes32",
                    "name": "id",
                    "type": "bytes32"
                }
            ],
            "name": "incentiveCampaignIdToICS",
            "outputs": [
                {
                    "internalType": "address",
                    "name": "ip",
                    "type": "address"
                },
                {
                    "internalType": "address",
                    "name": "protocolFeeClaimant",
                    "type": "address"
                },
                {
                    "internalType": "uint64",
                    "name": "protocolFee",
                    "type": "uint64"
                },
                {
                    "internalType": "address",
                    "name": "actionVerifier",
                    "type": "address"
                },
                {
                    "internalType": "bytes",
                    "name": "actionParams",
                    "type": "bytes"
                }
            ],
            "stateMutability": "view",
            "type": "function"
        },
        {
            "inputs": [
                {
                    "internalType": "bytes32",
                    "name": "_incentiveCampaignId",
                    "type": "bytes32"
                },
                {
                    "internalType": "address",
                    "name": "_coIP",
                    "type": "address"
                }
            ],
            "name": "isCoIP",
            "outputs": [
                {
                    "internalType": "bool",
                    "name": "whitelisted",
                    "type": "bool"
                }
            ],
            "stateMutability": "view",
            "type": "function"
        },
        {
            "inputs": [
                {
                    "internalType": "address",
                    "name": "_pointsId",
                    "type": "address"
                }
            ],
            "name": "isPointsProgram",
            "outputs": [
                {
                    "internalType": "bool",
                    "name": "exists",
                    "type": "bool"
                }
            ],
            "stateMutability": "view",
            "type": "function"
        },
        {
            "inputs": [
                {
                    "internalType": "bytes32",
                    "name": "_incentiveCampaignId",
                    "type": "bytes32"
                },
                {
                    "internalType": "address[]",
                    "name": "_incentivesToRemove",
                    "type": "address[]"
                },
                {
                    "internalType": "bytes",
                    "name": "_removalParams",
                    "type": "bytes"
                },
                {
                    "internalType": "address",
                    "name": "_recipient",
                    "type": "address"
                }
            ],
            "name": "maxRemoveIncentives",
            "outputs": [],
            "stateMutability": "nonpayable",
            "type": "function"
        },
        {
            "inputs": [],
            "name": "numIncentiveCampaignIds",
            "outputs": [
                {
                    "internalType": "uint256",
                    "name": "",
                    "type": "uint256"
                }
            ],
            "stateMutability": "view",
            "type": "function"
        },
        {
            "inputs": [],
            "name": "numPointsPrograms",
            "outputs": [
                {
                    "internalType": "uint256",
                    "name": "",
                    "type": "uint256"
                }
            ],
            "stateMutability": "view",
            "type": "function"
        },
        {
            "inputs": [],
            "name": "owner",
            "outputs": [
                {
                    "internalType": "address",
                    "name": "",
                    "type": "address"
                }
            ],
            "stateMutability": "view",
            "type": "function"
        },
        {
            "inputs": [],
            "name": "pendingOwner",
            "outputs": [
                {
                    "internalType": "address",
                    "name": "",
                    "type": "address"
                }
            ],
            "stateMutability": "view",
            "type": "function"
        },
        {
            "inputs": [
                {
                    "internalType": "address",
                    "name": "pointsId",
                    "type": "address"
                }
            ],
            "name": "pointsIdToProgram",
            "outputs": [
                {
                    "internalType": "address",
                    "name": "owner",
                    "type": "address"
                },
                {
                    "internalType": "string",
                    "name": "name",
                    "type": "string"
                },
                {
                    "internalType": "string",
                    "name": "symbol",
                    "type": "string"
                },
                {
                    "internalType": "uint8",
                    "name": "decimals",
                    "type": "uint8"
                }
            ],
            "stateMutability": "view",
            "type": "function"
        },
        {
            "inputs": [
                {
                    "internalType": "bytes32",
                    "name": "_incentiveCampaignId",
                    "type": "bytes32"
                },
                {
                    "internalType": "address[]",
                    "name": "_coIPs",
                    "type": "address[]"
                }
            ],
            "name": "removeCoIPs",
            "outputs": [],
            "stateMutability": "nonpayable",
            "type": "function"
        },
        {
            "inputs": [
                {
                    "internalType": "bytes32",
                    "name": "_incentiveCampaignId",
                    "type": "bytes32"
                },
                {
                    "internalType": "address[]",
                    "name": "_incentivesToRemove",
                    "type": "address[]"
                },
                {
                    "internalType": "uint256[]",
                    "name": "_incentiveAmountsToRemove",
                    "type": "uint256[]"
                },
                {
                    "internalType": "bytes",
                    "name": "_removalParams",
                    "type": "bytes"
                },
                {
                    "internalType": "address",
                    "name": "_recipient",
                    "type": "address"
                }
            ],
            "name": "removeIncentives",
            "outputs": [],
            "stateMutability": "nonpayable",
            "type": "function"
        },
        {
            "inputs": [],
            "name": "renounceOwnership",
            "outputs": [],
            "stateMutability": "nonpayable",
            "type": "function"
        },
        {
            "inputs": [
                {
                    "internalType": "uint64",
                    "name": "_defaultProtocolFee",
                    "type": "uint64"
                }
            ],
            "name": "setDefaultProtocolFee",
            "outputs": [],
            "stateMutability": "nonpayable",
            "type": "function"
        },
        {
            "inputs": [
                {
                    "internalType": "address",
                    "name": "_defaultProtocolFeeClaimant",
                    "type": "address"
                }
            ],
            "name": "setDefaultProtocolFeeClaimant",
            "outputs": [],
            "stateMutability": "nonpayable",
            "type": "function"
        },
        {
            "inputs": [
                {
                    "internalType": "bytes32",
                    "name": "_incentiveCampaignId",
                    "type": "bytes32"
                },
                {
                    "internalType": "address",
                    "name": "_protocolFeeClaimant",
                    "type": "address"
                }
            ],
            "name": "setProtocolFeeClaimantForCampaign",
            "outputs": [],
            "stateMutability": "nonpayable",
            "type": "function"
        },
        {
            "inputs": [
                {
                    "internalType": "bytes32",
                    "name": "_incentiveCampaignId",
                    "type": "bytes32"
                },
                {
                    "internalType": "uint64",
                    "name": "_protocolFee",
                    "type": "uint64"
                }
            ],
            "name": "setProtocolFeeForCampaign",
            "outputs": [],
            "stateMutability": "nonpayable",
            "type": "function"
        },
        {
            "inputs": [
                {
                    "internalType": "address",
                    "name": "newOwner",
                    "type": "address"
                }
            ],
            "name": "transferOwnership",
            "outputs": [],
            "stateMutability": "nonpayable",
            "type": "function"
        },
        {
            "inputs": [
                {
                    "internalType": "address",
                    "name": "_pointsId",
                    "type": "address"
                },
                {
                    "internalType": "address",
                    "name": "_newOwner",
                    "type": "address"
                }
            ],
            "name": "transferPointsProgramOwnership",
            "outputs": [],
            "stateMutability": "nonpayable",
            "type": "function"
        },
        {
            "inputs": [
                {
                    "internalType": "address",
                    "name": "_pointsId",
                    "type": "address"
                },
                {
                    "internalType": "address[]",
                    "name": "_ips",
                    "type": "address[]"
                },
                {
                    "internalType": "uint256[]",
                    "name": "_spendCaps",
                    "type": "uint256[]"
                }
            ],
            "name": "updateSpendCaps",
            "outputs": [],
            "stateMutability": "nonpayable",
            "type": "function"
        }
    ],
    "bytecode": "60803461017057601f6136d538819003918201601f19168301916001600160401b03831184841017610174578084926060946040528339810103126101705761004781610188565b90604061005660208301610188565b9101516001600160401b0381169290839003610170576001600160a01b0316801561015d57600380546001600160a01b031990811690915560028054918216831790556040517fd6b0dff7f1263b1718f2de6ed0b61093c648e20d7c02f6a2429df1c1d4caff1c9460209491939092839291906001600160a01b03167f8be0079c531659141344cd1fd0a4f28419497f9722a3daafe3b4186f6b6457e05f80a3600654906001600160a01b0381167fe1d65a5a92d47c8f778b220e48efaa139f14832bcbe36428956cfae7751ad8d55f80a26001600160e01b031990911660409190911b600160401b600160e01b031617176006558152a1604051613538908161019d8239f35b631e4fbdf760e01b5f525f60045260245ffd5b5f80fd5b634e487b7160e01b5f52604160045260245ffd5b51906001600160a01b03821682036101705756fe60a06040526004361015610011575f80fd5b5f6080525f3560e01c806301f4d73114612acf57806309d6c6e014612a365780630cadba1a146129e6578063171c69c21461296c578063188391f21461294f5780632200de581461275e5780632424b7cf146126df5780632dbfa7351461263e578063347088071461260657806336156b0114612268578063421bcbdf146122425780634a9296741461212a5780634c8e80d71461209657806352535a2914611feb57806353508ba414611f4f578063561b848e14611f25578063590275cc14611bc85780635bf3986714611b735780635e69c28914611ac157806364b86e3b14611688578063679d119714611641578063715018a6146115d457806372b4e0b2146115445780637991bb0a146113e257806379ba50971461134657806382476bb0146112065780638da5cb5b146111dc578063a61ea9d51461109d578063addd5be714610bf7578063be53041414610ba7578063bf1ab37414610b87578063c20f51d014610b04578063d154413c146107f1578063d4eb761314610754578063e30c39781461072a578063e62e91ef146102c7578063e820c2f5146102395763f2fde38b146101bf575f80fd5b34610233576020366003190112610233576101d8612b3b565b6101e0613129565b600380546001600160a01b0319166001600160a01b03928316908117909155600254608051919216907f38d16b8cac22d99fc7c124b9cd0de2d3fa1faef420bfe791d8c362d765e227009080a360805180f35b60805180fd5b34610233576020366003190112610233576001600160a01b0361025a612b3b565b1660805152600160205260406080512060018060a01b038154166102c360ff60038401541660026102b7604051956102a0876102998160018501612df5565b0388612c0e565b6102b06040518094819301612df5565b0382612c0e565b60405194859485612e76565b0390f35b346102335760a0366003190112610233576004356024356001600160401b038111610233576102fa903690600401612cc9565b906044356001600160401b0381116102335761031a903690600401612d60565b6064356001600160401b03811161023357610339903690600401612c2f565b6084356001600160a01b038116810361023357610354613150565b84518351810361071757846080515260046020526040608051209160018060a01b0383541633036107045760805190815b8383106104535750505050600201546001600160a01b031690813b15610233576040518092630a8dd91160e41b825281806103cb608051953390898c8c600487016130a5565b0391608051905af180156104465761042d575b506104127f3c63ebbd08d49cb329d47800437f6cd3cbe3c6a45d45263ba371cb9fb60fdaee916040519182913396836130f7565b0390a36080515f5160206134e35f395f51905f525d60805180f35b60805161043991612c0e565b60805161023357836103de565b6040513d608051823e3d90fd5b61045d838a612f3c565b51906001600160601b03199060601b166001600160601b03198260601b1611156106f1576001600160a01b038116926104968189612f3c565b516001600160a01b0383165f90815260068801602052604090205481106106c157506001600160a01b0382165f90815260068701602052604090205491826104de838b612f3c565b526001600160a01b0381165f908152600688016020526040902060805190555b6001600160a01b0381165f9081526005880160205260409020805461052490859061311c565b90556001600160a01b0381165f90815260058801602052604090205415610590575b6001600160a01b038181165f9081526001602081905260409091205490949186911615610578575b5050500191610385565b61058892858060a01b0316613185565b8a808461056e565b6004870154805f198101116106a9576080515b5f1982018110610673575b600182820301610616575b505060048701549283156105fe576001935f19016105f26105dd8260048c01613215565b81549060018060a01b039060031b1b19169055565b60048901559250610546565b634e487b7160e01b6080515260316004526024608051fd5b61064861062c61066c935f190160048c01613215565b905460039190911b1c6001600160a01b03169160048b01613215565b81546001600160a01b0393841660039290921b91821b9390911b1916919091179055565b8b806105b9565b6106808160048b01613215565b905460039190911b1c6001600160a01b03908116908416146106a4576001016105a3565b6105ae565b634e487b7160e01b6080515260116004526024608051fd5b6001600160a01b0383165f908152600688016020526040902080549193916106ea90859061311c565b90556104fe565b63919aa19d60e01b608051526004608051fd5b636622298760e11b608051526004608051fd5b63512509d360e11b608051526004608051fd5b3461023357608051366003190112610233576003546040516001600160a01b039091168152602090f35b346102335760203660031901126102335760043560805152600460205260406080512060018060a01b038154166102c360036001840154936107b460018060a01b03600283015416916107ad6040518095819301612df5565b0383612c0e565b6001600160401b03604051958695865260018060a01b038116602087015260a01c166040850152606084015260a0608084015260a0830190612b7b565b346102335760803660031901126102335761080a612b3b565b6024356001600160401b03811161023357610829903690600401612c2f565b6044356001600160401b03811161023357610848903690600401612cc9565b916064356001600160401b03811161023357610868903690600401612d60565b610870613150565b61087b600754612f64565b80600755604051926020840191825233604085015260018060a01b0316928360608201526080808201526108c4816108b660a0820188612b7b565b03601f198101835282612c0e565b5190209283608051526004602052604060805120946108e4838288613237565b85546001600160a01b0319163317865560065460018701805467ffffffffffffffff60a01b191660a09290921b67ffffffffffffffff60a01b169190911781559560039060028101866001600160601b0360a01b8254161790550182516001600160401b038111610aec576109638161095d8454612dbd565b84612f72565b60206001601f831114610a8657608051610991929182610a7b575b508160011b915f199060031b1c19161790565b90555b833b156102335760405163177452a360e01b815260805181806109be338789888d600487016130a5565b0381608051895af1801561044657610a62575b50610a248592610a45610a367ff79c961102245d34bfac8849a8ce0c77c8828322db14604fdb68830d2d7a86ff946001600160401b0360209b5460a01c1690604051958695608087526080870190612b7b565b918c8601528482036040860152612b9f565b82810360608401523396612bdb565b0390a46080515f5160206134e35f395f51905f525d604051908152f35b608051610a6e91612c0e565b60805161023357866109d1565b90508501518a61097e565b601f1982169083608051528060805120916080515b818110610ad457509083600194939210610abc575b5050811b019055610994565b8601515f1960f88460031b161c191690558980610ab0565b9192602060018192868b015181550194019201610a9b565b634e487b7160e01b6080515260416004526024608051fd5b34610233576020366003190112610233576001600160a01b03610b25612b3b565b1660805152600160205260406080512060018060a01b038154166102c360405192610b5e84610b578160018501612df5565b0385612c0e565b60ff600360405192610b7784610b578160028501612df5565b0154169060405194859485612e76565b346102335760805136600319011261023357602060805154604051908152f35b3461023357604036600319011261023357610bc0612b51565b6004356080515260046020526007604060805120019060018060a01b03165f52602052602060ff60405f2054166040519015158152f35b3461023357606036600319011261023357610c10612b3b565b6024356001600160401b038111610233573660238201121561023357806004013590610c3b82612cb2565b91610c496040519384612c0e565b8083526024602084019160051b8301019136831161023357602401905b82821061108d57505050604435916001600160401b0383116102335736602384011215610233578260040135610c9b81612cb2565b93610ca96040519586612c0e565b8185526024602086019260051b820101903682116102335760248101925b82841061105e575050505081519183518303610717576080515b838110610cee5760805180f35b610cf88183612f3c565b51610d038287612f3c565b5190610d0d613150565b806080515260046020526040608051209160018060a01b03600284015416906040518092632b7310b760e01b825284600483015260018060a01b0389166024830152606060448301528180610d69608051956064830190612b7b565b0391608051905af1801561044657608051918291610f9d575b5060018401546001600160a01b03168015610f88575b8251908251820361071757610dac82612f0a565b92610db683612f0a565b966080515b848110610e4b575050505050610e0c600195949392610e30610e1a7fb29156181ffb835bbf33232d1438e01c371117d1951ebc2f907b442d0bb48ef494604051948594606086526060860190612b9f565b908482036020860152612bdb565b8281036040840152888060a01b038b1696612bdb565b0390a36080515f5160206134e35f395f51905f525d01610ce1565b6001600160a01b03610e5d8289612f3c565b511690610e6a8185612f3c565b519160018060a01b0381165f526006840160205260405f20610e8d84825461311c565b90556001600160401b03600185015460a01c16805f19048411810215670de0b6b3a76400000215610233578e610ee985670de0b6b3a76400008f946001980204610ed78786612f3c565b52610ee28685612f3c565b519061311c565b610ef3858c612f3c565b52610f0984610f02818d612f3c565b5193612f3c565b516001600160a01b038085165f908152600160205260409020549194911615610f4557610f3a610f3f948a836134a5565b6134a5565b01610dbb565b610f8393868060a01b038a16608051526005602052604060805120878060a01b0383165f52602052610f7c60405f2091825461322a565b9055613185565b610f3f565b5060065460401c6001600160a01b0316610d98565b9150503d80608051833e610fb18183612c0e565b8101906040818303126102335780516001600160401b0381116102335781019180601f84011215610233578251610fe781612cb2565b93610ff56040519586612c0e565b81855260208086019260051b8201019083821161023357602001915b81831061103e5750505060208201516001600160401b038111610233576110389201613048565b89610d82565b82516001600160a01b038116810361023357815260209283019201611011565b83356001600160401b03811161023357602091611082839260243691870101612c2f565b815201930192610cc7565b8135815260209182019101610c66565b34610233576060366003190112610233576110b6612b3b565b6024356001600160401b038111610233576110d5903690600401612c82565b906044356001600160401b038111610233576110f5903690600401612c82565b92909360018060a01b0316928360805152600160205260406080512060018060a01b0381541633036111c9578183036107175760046080519101905b83811061118f5750507fbc72d4ca5e76b992dcd5be1df75d736e4c0b0599fd3c004f36476630738a477b939461118691611178604051958695604087526040870191612fe5565b918483036020860152613024565b0390a260805180f35b8061119d600192858a612fc1565b356111b16111ac83888a612fc1565b612fd1565b838060a01b03165f528360205260405f205501611131565b633a33cc2560e11b608051526004608051fd5b3461023357608051366003190112610233576002546040516001600160a01b039091168152602090f35b34610233576020366003190112610233576080805160048035909152602052516040902080546001600160a01b03169060609082151590829081908361128e575b506102c39293611272611280926040519788978852602088015260a0604088015260a0870190612b9f565b908582036060870152612bdb565b908382036080850152612bdb565b9293506112a091505060048201612eb7565b906112ab8251612f0a565b916112b68151612f0a565b92608051926006600582019101935b8351811015611337576001906001600160a01b036112e38287612f3c565b5116828060a01b03165f528260205260405f20546113018286612f3c565b52818060a01b036113128287612f3c565b5116828060a01b03165f528560205260405f20546113308289612f3c565b52016112c5565b50506102c39392509392611247565b346102335760805136600319011261023357600354336001600160a01b03909116036113cb576001600160601b0360a01b60035416600355600254336001600160601b0360a01b821617600255339060018060a01b03167f8be0079c531659141344cd1fd0a4f28419497f9722a3daafe3b4186f6b6457e0608051608051a360805180f35b63118cdaa760e01b60805152336004526024608051fd5b34610233576080366003190112610233576004356024356001600160401b03811161023357611415903690600401612cc9565b906044356001600160401b03811161023357611435903690600401612d60565b6064356001600160401b03811161023357611454903690600401612c2f565b61145c613150565b8260805152600460205260406080512060018060a01b038154163314801561152a575b156107045761148f838683613237565b600201546001600160a01b031690813b1561023357604051809263113f445560e31b825281806114ca608051953390898c8c600487016130a5565b0391608051905af1801561044657611511575b506104127fd981c461254d0d8015637fff4560ae51815a09982ff676394a303e7695d29bf6916040519182913396836130f7565b60805161151d91612c0e565b60805161023357836114dd565b50335f90815260078201602052604090205460ff1661147f565b3461023357604036600319011261023357608061155f612b51565b815160048035825260205282516040902080546001600160a01b0316801515938392856115a0575b5050604051938452602084015260408301526060820152f35b6001600160a01b039091165f9081526005820160209081526040808320546006909401909152902054935091508580611587565b3461023357608051366003190112610233576115ee613129565b600380546001600160a01b0319908116909155600280549182169055608051906001600160a01b03167f8be0079c531659141344cd1fd0a4f28419497f9722a3daafe3b4186f6b6457e08280a360805180f35b3461023357602036600319011261023357602061167e61165f612b3b565b6001600160a01b039081165f9081526001602052604090205416151590565b6040519015158152f35b34611838576080366003190112611838576004356024356001600160401b038111611838576116bb903690600401612cc9565b906044356001600160401b038111611838576116db903690600401612c2f565b6064356001600160a01b038116810361183857825f52600460205260018060a01b03600260405f20015416905f6040518093637d72ac2160e01b8252866004830152604060248301528180611733604482018b612b9f565b03915afa91821561182d575f92611a82575b5061174e613150565b84519082518203611a73575f85815260046020526040902080549092906001600160a01b03163303611a64575f6005840160068501825b84841061183c5750505050600292909201546001600160a01b0316915050803b1561183857604051630a8dd91160e41b8152925f9184918290849082906117d4903390898d8d600487016130a5565b03925af190811561182d577f3c63ebbd08d49cb329d47800437f6cd3cbe3c6a45d45263ba371cb9fb60fdaee9261041292611819575b506040519182913396836130f7565b5f61182391612c0e565b5f6080528561180a565b6040513d5f823e3d90fd5b5f80fd5b611846848c612f3c565b516001600160a01b038116916bffffffffffffffffffffffff19606091821b81169290911b161115611a5557809361187e818a612f3c565b516001600160a01b0383165f908152602085905260409020548110611a2f57506001600160a01b0382165f9081526020849052604090205491826118c2838c612f3c565b526001600160a01b0381165f908152602085905260408120555b60018060a01b0381165f528460205260405f206118fa84825461311c565b90556001600160a01b0381165f908152602086905260409020541561195d575b6001600160a01b038082165f908152600160208190526040909120549094918a91161561194c575b5050500192611785565b61195592613185565b8c8088611942565b600489019283545f198101908111611a1b575f5b8181106119ec575b8181036119bc575b505083549384156119a8576001945f1901906119a06105dd8383613215565b55925061191a565b634e487b7160e01b5f52603160045260245ffd5b6106486119cc6119e59388613215565b905460039190911b1c6001600160a01b03169187613215565b8e80611981565b836119f78288613215565b905460039190911b1c6001600160a01b031614611a1657600101611971565b611979565b634e487b7160e01b5f52601160045260245ffd5b9160018060a01b0381165f528360205260405f20611a4e84825461311c565b90556118dc565b63919aa19d60e01b5f5260045ffd5b636622298760e11b5f5260045ffd5b63512509d360e11b5f5260045ffd5b9091503d805f833e611a948183612c0e565b81016020828203126118385781516001600160401b03811161183857611aba9201613048565b9085611745565b3461183857611acf36612d2e565b5f82815260046020526040902080546001600160a01b03163303611a64578151906007015f5b828110611b3b57847f391d064f23421bfadf972029888b99756374cc370a886110d267dae85b75754d611b3686604051918291602083526020830190612b9f565b0390a2005b6001906001600160a01b03611b508287612f3c565b5116828060a01b03165f528260205260405f208260ff1982541617905501611af5565b3461183857604036600319011261183857611b8c612b3b565b611b94612b51565b9060018060a01b03165f526001602052600460405f20019060018060a01b03165f52602052602060405f2054604051908152f35b3461183857606036600319011261183857600435611be4612b51565b906044356001600160401b03811161183857611c04903690600401612c2f565b91611c0d613150565b815f52600460205260405f209060018060a01b03600283015416915f6040518094632b7310b760e01b8252866004830152818381611c6560018060a01b0389169b8c6024840152606060448401526064830190612b7b565b03925af190811561182d575f935f92611e64575b50600181019260018060a01b03845416908115611e4e575b85519380518503611a7357611ca7859495612f0a565b94611cb185612f0a565b9660065f9201915b868110611d34578b8b7fb29156181ffb835bbf33232d1438e01c371117d1951ebc2f907b442d0bb48ef4611d038d611d1f8e611d118f604051958695606087526060870190612b9f565b908582036020870152612bdb565b908382036040850152612bdb565b0390a35f5f5160206134e35f395f51905f525d005b6001600160a01b03611d46828c612f3c565b511690611d538186612f3c565b519160018060a01b0381165f528460205260405f20611d7384825461311c565b90556001600160401b03845460a01c16805f19048411810215670de0b6b3a764000002156118385787611ddf84610f028f948f611dcf8a670de0b6b3a7640000869460019d0204611dc4858b612f3c565b52610ee2848a612f3c565b611dd98383612f3c565b52612f3c565b516001600160a01b038085165f908152600160205260409020549194911615611e1657610f3a611e10948c836134a5565b01611cb9565b611e4993868060a01b038c165f52600560205260405f20878060a01b0383165f52602052610f7c60405f2091825461322a565b611e10565b60065460401c6001600160a01b03169150611c91565b935090503d805f853e611e778185612c0e565b8301926040818503126118385780516001600160401b0381116118385781019380601f86011215611838578451611ead81612cb2565b95611ebb6040519788612c0e565b81875260208088019260051b8201019083821161183857602001915b818310611f055750505060208201516001600160401b03811161183857611efe9201613048565b9086611c79565b82516001600160a01b038116810361183857815260209283019201611ed7565b34611838575f366003190112611838576006546040805191901c6001600160a01b03168152602090f35b34611838576040366003190112611838576004356024356001600160401b03811690818103611838577f2f24ccde785f7f37bfa3530622c20c7e65c017f78d90efa4564a043bb471ac8391611fe2602092611fa8613129565b5f8681526004855260409020600101805467ffffffffffffffff60a01b191660a09290921b67ffffffffffffffff60a01b16919091179055565b604051908152a2005b3461183857611ff936612d2e565b5f82815260046020526040902080546001600160a01b03163303611a64578151906007015f5b82811061206057847ffa950d86906662e1860bffe0864eee1efe478ec1464b135242bf0ee2420a35f0611b3686604051918291602083526020830190612b9f565b6001906001600160a01b036120758287612f3c565b5116828060a01b03165f528260205260405f2060ff1981541690550161201f565b34611838576020366003190112611838575f60606004355f5260046020526102c360405f209160018060a01b038354169384151593846120fd575b506040519485948552602085015260018060a01b03166040840152608060608401526080830190612b7b565b915050600361212360018060a01b03600284015416926102b06040518094819301612df5565b90856120d1565b346118385761213836612d2e565b5f9182526004602052604090912080546001600160a01b0316918215159160609182919084612198575b50509061218a6102c39260405195869586526020860152608060408601526080850190612bdb565b908382036060850152612bdb565b8093506121a791925051612f0a565b916121b28151612f0a565b9260068301926005015f5b835181101561222f576001906001600160a01b036121db8287612f3c565b5116828060a01b03165f528260205260405f20546121f98286612f3c565b52818060a01b0361220a8287612f3c565b5116828060a01b03165f528560205260405f20546122288289612f3c565b52016121bd565b5090925061218a91506102c39050612162565b34611838575f3660031901126118385760206001600160401b0360065416604051908152f35b346118385760a0366003190112611838576004356001600160401b03811161183857612298903690600401612c2f565b6024356001600160401b038111611838576122b7903690600401612c2f565b60443560ff8116809103611838576064356001600160401b038111611838576122e4903690600401612c82565b9390916084356001600160401b03811161183857612306903690600401612c82565b919095828103611a735761231a5f54612f64565b805f556040516020810191825233604082015260a0606082015261236e8161235a61234860c083018a612b7b565b828103601f190160808401528b612b7b565b8660a083015203601f198101835282612c0e565b51902060601c95865f52600160205260405f2060018060a01b0333166001600160601b0360a01b8254161781556001810186516001600160401b038111612585576123bd8161095d8454612dbd565b6020601f82116001146125a45790806123e9925f9161259957508160011b915f199060031b1c19161790565b90555b6002810182516001600160401b0381116125855761240e8161095d8454612dbd565b6020601f821160011461252557908061243a925f9161251a57508160011b915f199060031b1c19161790565b90555b60038101805460ff1916851790556004015f5b8381106124e5575050936124da87946124ca7f067b7ff83c2d7e30a34db94f10b7f0285f001b2e0004232fd5b1cf11d8773c0d956124b8956020809d9a604051918183925191829101835e81015f81520390209a604051978897608089526080890190612b7b565b928e8801528683036040880152612fe5565b9083820360608501523397613024565b0390a4604051908152f35b806124f3600192888d612fc1565b356125026111ac83888d612fc1565b838060a01b03165f528360205260405f205501612450565b90508501518d61097e565b601f19821690835f52805f20915f5b81811061256d57509083600194939210612555575b5050811b01905561243d565b8601515f1960f88460031b161c191690558c80612549565b9192602060018192868b015181550194019201612534565b634e487b7160e01b5f52604160045260245ffd5b90508901518d61097e565b601f19821690835f52805f20915f5b8b8282106125ee57505090836001949392106125d6575b5050811b0190556123ec565b8a01515f1960f88460031b161c191690558c806125ca565b600184956020939584930151815501940192016125b3565b34611838576020366003190112611838576004355f526004602052604060018060a01b03815f20541681519080151582526020820152f35b3461183857604036600319011261183857612657612b3b565b61265f612b51565b90612668613150565b335f9081526005602090815260408083206001600160a01b0394909416808452939091528120805491905590916126a190829084613185565b6040519081527ffe3464cd748424446c37877c28ce5b700222c5bc9f90d908afcc4e5cb22707ff60203392a35f5f5160206134e35f395f51905f525d005b34611838576020366003190112611838576126f8612b3b565b612700613129565b6006805468010000000000000000600160e01b031916604083901b68010000000000000000600160e01b03161790556001600160a01b03167fe1d65a5a92d47c8f778b220e48efaa139f14832bcbe36428956cfae7751ad8d55f80a2005b34611838576020366003190112611838575f5f905f606080809281956004355f52600460205260405f209560018060a01b038754168015159788612826575b50612817946102c39794612809946001600160401b0360209c99956127fb956040519e8f9e8f90815201521660408c015260018060a01b031660608b015260018060a01b031660808a015261012060a08a0152610120890190612b7b565b9087820360c0890152612b9f565b9085820360e0870152612bdb565b90838203610100850152612bdb565b600181015490995060a081901c6001600160401b03169897509095506001600160a01b0316935050508115159050612947575060065490929060401c6001600160a01b03165b9160018060a01b0360028601541660405161288e816102b08160038b01612df5565b9161289b60048801612eb7565b926128a68451612f0a565b926128b18551612f0a565b965f96600660058c019b01975b8751811015612930576001906001600160a01b036128dc828b612f3c565b5116828060a01b03165f528c60205260405f20546128fa828a612f3c565b52818060a01b0361290b828b612f3c565b5116828060a01b03165f528960205260405f2054612929828d612f3c565b52016128be565b50979950929793969495509093909261281761279d565b92909261286c565b34611838575f366003190112611838576020600754604051908152f35b3461183857604036600319011261183857600435612988612b51565b612990613129565b5f82815260046020526040812060010180546001600160a01b0319166001600160a01b039390931692831790559091907f190086ea5ffd5cb9d4bec6a342248d3302c0dffdb45a121d2ccbcd097ba15b369080a3005b34611838576040366003190112611838576129ff612b3b565b612a07612b51565b6001600160a01b039182165f908152600560209081526040808320949093168252928352819020549051908152f35b3461183857604036600319011261183857612a4f612b3b565b612a57612b51565b6001600160a01b039182165f818152600160205260409020805491939091163303612ac05780546001600160a01b0319166001600160a01b03929092169182179055907fba8cf1f4a2985e498152919078701ae6edb7f3ce6aa3f196ce53f3ff759b30bb5f80a3005b633a33cc2560e11b5f5260045ffd5b34611838576020366003190112611838576004356001600160401b0381168091036118385760207fd6b0dff7f1263b1718f2de6ed0b61093c648e20d7c02f6a2429df1c1d4caff1c91612b20613129565b806001600160401b03196006541617600655604051908152a1005b600435906001600160a01b038216820361183857565b602435906001600160a01b038216820361183857565b35906001600160a01b038216820361183857565b805180835260209291819084018484015e5f828201840152601f01601f1916010190565b90602080835192838152019201905f5b818110612bbc5750505090565b82516001600160a01b0316845260209384019390920191600101612baf565b90602080835192838152019201905f5b818110612bf85750505090565b8251845260209384019390920191600101612beb565b90601f801991011681019081106001600160401b0382111761258557604052565b81601f82011215611838576020813591016001600160401b0382116125855760405192612c66601f8401601f191660200185612c0e565b8284528282011161183857815f92602092838601378301015290565b9181601f84011215611838578235916001600160401b038311611838576020808501948460051b01011161183857565b6001600160401b0381116125855760051b60200190565b9080601f83011215611838578135612ce081612cb2565b92612cee6040519485612c0e565b81845260208085019260051b82010192831161183857602001905b828210612d165750505090565b60208091612d2384612b67565b815201910190612d09565b9060406003198301126118385760043591602435906001600160401b03821161183857612d5d91600401612cc9565b90565b9080601f83011215611838578135612d7781612cb2565b92612d856040519485612c0e565b81845260208085019260051b82010192831161183857602001905b828210612dad5750505090565b8135815260209182019101612da0565b90600182811c92168015612deb575b6020831014612dd757565b634e487b7160e01b5f52602260045260245ffd5b91607f1691612dcc565b5f9291815491612e0483612dbd565b8083529260018116908115612e595750600114612e2057505050565b5f9081526020812093945091925b838310612e3f575060209250010190565b600181602092949394548385870101520191019190612e2e565b915050602093945060ff929192191683830152151560051b010190565b92612eb090612ea260609460ff9498979860018060a01b03168752608060208801526080870190612b7b565b908582036040870152612b7b565b9416910152565b90604051918281549182825260208201905f5260205f20925f5b818110612ee8575050612ee692500383612c0e565b565b84546001600160a01b0316835260019485019487945060209093019201612ed1565b90612f1482612cb2565b612f216040519182612c0e565b8281528092612f32601f1991612cb2565b0190602036910137565b8051821015612f505760209160051b010190565b634e487b7160e01b5f52603260045260245ffd5b5f198114611a1b5760010190565b601f8211612f7f57505050565b5f5260205f20906020601f840160051c83019310612fb7575b601f0160051c01905b818110612fac575050565b5f8155600101612fa1565b9091508190612f98565b9190811015612f505760051b0190565b356001600160a01b03811681036118385790565b916020908281520191905f5b818110612ffe5750505090565b909192602080600192838060a01b0361301688612b67565b168152019401929101612ff1565b81835290916001600160fb1b0383116118385760209260051b809284830137010190565b9080601f8301121561183857815161305f81612cb2565b9261306d6040519485612c0e565b81845260208085019260051b82010192831161183857602001905b8282106130955750505090565b8151815260209182019101613088565b93906080936130cb6130e7946130d993999899885260a0602089015260a0880190612b9f565b908682036040880152612bdb565b908482036060860152612b7b565b6001600160a01b03909416910152565b909161310e612d5d93604084526040840190612b9f565b916020818403910152612bdb565b91908203918211611a1b57565b6002546001600160a01b0316330361313d57565b63118cdaa760e01b5f523360045260245ffd5b5f5160206134e35f395f51905f525c6131765760015f5160206134e35f395f51905f525d565b633ee5aeb560e01b5f5260045ffd5b60405163a9059cbb60e01b81526001600160a01b03909216600483015260248201929092526020905f9060449082855af19081601f3d1160015f5114161516613208575b50156131d157565b60405162461bcd60e51b815260206004820152600f60248201526e1514905394d1915497d19052531151608a1b6044820152606490fd5b3b153d171590505f6131c9565b8054821015612f50575f5260205f2001905f90565b91908201809211611a1b57565b9092918351815103611a73575f93845b815186101561349d5761325a8683612f3c565b516001600160a01b038116916bffffffffffffffffffffffff19606091821b81169290911b161115611a555780956132928185612f3c565b51801561348e576001600160a01b038084165f9081526001602052604090205416156133f257825f52600160205260405f203360018060a01b03825416036133a1575b50604051818152837f8819aafa150e0a72d7e59b095a070519acb2aa21b97e46fee799040cc70adf5160203393a35b600586019260018060a01b0381165f528360205260405f20541561336c575b600193848060a01b0382165f5260205260405f2061334283825461322a565b9055838060a01b03165f526006860160205261336360405f2091825461322a565b90550194613247565b60048701938454946801000000000000000086101561258557826106488761339a936001809a018155613215565b9350613323565b60040160018060a01b0333165f52806020528160405f2054106133e35760018060a01b0333165f5260205260405f206133db82825461311c565b90555f6132d5565b63d1fe230360e01b5f5260045ffd5b823b1561347f5760205f60646040516323b872dd60e01b815233600482015230602482015284604482015282875af180601f3d1160015f5114161516613473575b6133045760405162461bcd60e51b81526020600482015260146024820152731514905394d1915497d19493d357d1905253115160621b6044820152606490fd5b503d833b151715613433565b63677510db60e11b5f5260045ffd5b63160e22a760e31b5f5260045ffd5b505050509050565b6040519283526001600160a01b03918216929116907f1c48783162e8dc31e485a7341a8d79d64dff9e4b10fcf17eaa06464048157a7b90602090a356fe9b779b17422d0df92223018b32b4d1fa46e071723d6817e2486d003becc55f00a2646970667358221220f857ae70558da82ed82aa60ba3cf9ad807fd7305dca9d32857fa7ee1d1a7943964736f6c634300081c0033",
    "sourcePath": "/Users/shivkapoor/royco-v2/src/core/IncentiveLocker.sol",
    "compiler": {
        "name": "solc",
        "version": "0.8.28+commit.7893614a"
    },
    "functionHashes": {
        "acceptOwnership()": "79ba5097",
        "addCoIPs(bytes32,address[])": "5e69c289",
        "addIncentives(bytes32,address[],uint256[],bytes)": "7991bb0a",
        "claimFees(address,address)": "2dbfa735",
        "claimIncentives(address,bytes32[],bytes[])": "addd5be7",
        "claimIncentives(bytes32,address,bytes)": "590275cc",
        "createIncentiveCampaign(address,bytes,address[],uint256[])": "d154413c",
        "createPointsProgram(string,string,uint8,address[],uint256[])": "36156b01",
        "defaultProtocolFee()": "421bcbdf",
        "defaultProtocolFeeClaimant()": "561b848e",
        "feeClaimantToTokenToAmount(address,address)": "0cadba1a",
        "getIncentiveAmountOfferedAndRemaining(bytes32,address)": "72b4e0b2",
        "getIncentiveAmountsOfferedAndRemaining(bytes32,address[])": "4a929674",
        "getIncentiveCampaignIncentiveInfo(bytes32)": "82476bb0",
        "getIncentiveCampaignState(bytes32)": "2200de58",
        "getIncentiveCampaignVerifierAndParams(bytes32)": "4c8e80d7",
        "getIpSpendCap(address,address)": "5bf39867",
        "getPointsProgramMetadata(address)": "e820c2f5",
        "incentiveCampaignExists(bytes32)": "34708807",
        "incentiveCampaignIdToICS(bytes32)": "d4eb7613",
        "isCoIP(bytes32,address)": "be530414",
        "isPointsProgram(address)": "679d1197",
        "maxRemoveIncentives(bytes32,address[],bytes,address)": "64b86e3b",
        "numIncentiveCampaignIds()": "188391f2",
        "numPointsPrograms()": "bf1ab374",
        "owner()": "8da5cb5b",
        "pendingOwner()": "e30c3978",
        "pointsIdToProgram(address)": "c20f51d0",
        "removeCoIPs(bytes32,address[])": "52535a29",
        "removeIncentives(bytes32,address[],uint256[],bytes,address)": "e62e91ef",
        "renounceOwnership()": "715018a6",
        "setDefaultProtocolFee(uint64)": "01f4d731",
        "setDefaultProtocolFeeClaimant(address)": "2424b7cf",
        "setProtocolFeeClaimantForCampaign(bytes32,address)": "171c69c2",
        "setProtocolFeeForCampaign(bytes32,uint64)": "53508ba4",
        "transferOwnership(address)": "f2fde38b",
        "transferPointsProgramOwnership(address,address)": "09d6c6e0",
        "updateSpendCaps(address,address[],uint256[])": "a61ea9d5"
    },
    "gasEstimates": {
        "creation": {
            "codeDepositCost": "2724800",
            "executionCost": "infinite",
            "totalCost": "infinite"
        },
        "external": {
            "acceptOwnership()": "52827",
            "addCoIPs(bytes32,address[])": "infinite",
            "addIncentives(bytes32,address[],uint256[],bytes)": "infinite",
            "claimFees(address,address)": "infinite",
            "claimIncentives(address,bytes32[],bytes[])": "infinite",
            "claimIncentives(bytes32,address,bytes)": "infinite",
            "createIncentiveCampaign(address,bytes,address[],uint256[])": "infinite",
            "createPointsProgram(string,string,uint8,address[],uint256[])": "infinite",
            "defaultProtocolFee()": "2497",
            "defaultProtocolFeeClaimant()": "2619",
            "feeClaimantToTokenToAmount(address,address)": "2620",
            "getIncentiveAmountOfferedAndRemaining(bytes32,address)": "7401",
            "getIncentiveAmountsOfferedAndRemaining(bytes32,address[])": "infinite",
            "getIncentiveCampaignIncentiveInfo(bytes32)": "infinite",
            "getIncentiveCampaignState(bytes32)": "infinite",
            "getIncentiveCampaignVerifierAndParams(bytes32)": "infinite",
            "getIpSpendCap(address,address)": "2944",
            "getPointsProgramMetadata(address)": "infinite",
            "incentiveCampaignExists(bytes32)": "2542",
            "incentiveCampaignIdToICS(bytes32)": "infinite",
            "isCoIP(bytes32,address)": "3140",
            "isPointsProgram(address)": "2892",
            "maxRemoveIncentives(bytes32,address[],bytes,address)": "infinite",
            "numIncentiveCampaignIds()": "2347",
            "numPointsPrograms()": "2926",
            "owner()": "2859",
            "pendingOwner()": "3035",
            "pointsIdToProgram(address)": "infinite",
            "removeCoIPs(bytes32,address[])": "infinite",
            "removeIncentives(bytes32,address[],uint256[],bytes,address)": "infinite",
            "renounceOwnership()": "52766",
            "setDefaultProtocolFee(uint64)": "27614",
            "setDefaultProtocolFeeClaimant(address)": "27918",
            "setProtocolFeeClaimantForCampaign(bytes32,address)": "28299",
            "setProtocolFeeForCampaign(bytes32,uint64)": "28422",
            "transferOwnership(address)": "31088",
            "transferPointsProgramOwnership(address,address)": "28306",
            "updateSpendCaps(address,address[],uint256[])": "infinite"
        },
        "internal": {
            "_pullIncentivesAndUpdateAccounting(struct IncentiveLocker.ICS storage pointer,address[] memory,uint256[] memory)": "infinite",
            "_pushIncentivesAndAccountFees(address,address,address,uint256,uint256)": "infinite",
            "_remitIncentivesAndFees(struct IncentiveLocker.ICS storage pointer,address,address,address[] memory,uint256[] memory)": "infinite",
            "_removeIncentiveFromCampaign(struct IncentiveLocker.ICS storage pointer,address)": "infinite"
        }
    }
}